S00E00006D61737465722E737265638A
S11300000C942A000C9447000C9447000C9447006D
S11300100C9447000C9447000C9447000C94470040
S11300200C9447000C9447000C9447000C94470030
S11300300C9447000C9432030C941E030C94470058
S11300400C9447000C9447000C9447000C94470010
S11300500C94470011241FBECFE5D8E0DEBFCDBF0E
S113006010E0A0E6B0E0E0EDF6E002C005900D92ED
S1130070A63CB107D9F720E0A6ECB0E001C01D9280
S1130080A83DB207E1F70E9405020C9466030C94A4
S11300900000442379F1413009F05FC0813079F0E8
S11300A028F08230A9F08330E1F008952AB381E08A
S11300B090E001C0880F6A95EAF7822B2CC027B321
S11300C081E090E001C0880F6A95EAF7822B2EC088
S11300D024B381E090E001C0880F6A95EAF7822B8F
S11300E030C021B381E090E001C0880F6A95EAF73F
S11300F0822B32C0813089F028F08230C9F08330FD
S113010011F108952AB381E090E001C0880F6A9547
S1130110EAF7809582238ABB089527B381E090E0B3
S113012001C0880F6A95EAF78095822387BB0895FA
S113013024B381E090E001C0880F6A95EAF78095C6
S1130140822384BB089521B381E090E001C0880F2D
S11301506A95EAF78095822381BB0895442379F157
S1130160413009F05FC0813079F028F08230A9F085
S11301708330E1F008952BB381E090E001C0880F53
S11301806A95EAF7822B2CC028B381E090E001C085
S1130190880F6A95EAF7822B2EC025B381E090E0A0
S11301A001C0880F6A95EAF7822B30C022B381E040
S11301B090E001C0880F6A95EAF7822B32C0813043
S11301C089F028F08230C9F0833011F108952BB3FF
S11301D081E090E001C0880F6A95EAF78095822358
S11301E08BBB089528B381E090E001C0880F6A9525
S11301F0EAF78095822388BB089525B381E090E0D7
S113020001C0880F6A95EAF78095822385BB08951B
S113021022B381E090E001C0880F6A95EAF78095E7
S1130220822382BB0895CF93C82F40E061E081E030
S11302300E94AE0040E062E081E00E94AE0040E037
S113024063E081E00E94AE008BB39C2F907F8F709F
S1130250892B8BBB41E063E081E00E94AE008FE913
S11302609FE00197F1F700C0000040E063E081E007
S11302700E94AE002BB330E1C39FC0011124922F22
S11302809F70892B8BBB41E063E081E00E94AE004C
S11302908FE99FE00197F1F700C0000040E063E0C0
S11302A081E00E94AE008FE19EE40197F1F700C067
S11302B00000CF91089541E061E081E00E9449008F
S11302C041E062E081E00E94490041E063E081E0B6
S11302D00E94490041E064E080E00E94490041E05E
S11302E065E080E00E94490041E066E080E00E9411
S11302F0490041E067E080E00E9449002FEF81EE71
S113030094E0215080409040E1F700C0000083E376
S11303100E94130182E30E94130188E20E941301E8
S11303208CE00E94130181E00E94130186E00E9488
S1130330130182E00C941301CF93C82F41E061E0D4
S113034081E00E94AE0040E062E081E00E94AE00E5
S113035040E063E081E00E94AE008C2F807F8BBB85
S113036041E063E081E00E94AE008FE99FE00197E5
S1130370F1F700C0000040E063E081E00E94AE00BD
S1130380C295C07FCBBB41E063E081E00E94AE0038
S11303908FE99FE00197F1F700C0000040E063E0BF
S11303A081E00E94AE008FE19EE40197F1F700C066
S11303B00000CF9108950F931F93CF938C01C0E059
S11303C0F801EC0FF11D8081882321F00E949C012B
S11303D0CF5FF6CFCF911F910F910895CF93DF9305
S11303E000D0CDB7DEB790E8998390EC9A83FE01F4
S11303F0E80FF11D8181860F0F900F90DF91CF914F
S11304000C94130181E00C9413010E945B010E947F
S1130410DC020E94000341E060E080E00E944900A9
S113042041E061E080E00E94490041E062E080E058
S11304300E94490041E063E080E00E94490041E0FD
S113044060E080E00E94AE0041E061E080E00E9454
S1130450AE0041E062E080E00E94AE0041E063E073
S113046080E00E94AE0080E690E00E9407030E94B4
S11304701A030E94AC02813009F06BC08DE690E053
S11304800E9407038DE690E00E94DB0140E064E0F7
S113049081E00E94AE000E94B6020E94D0022FEFBB
S11304A033ED80E3215030408040E1F700C000008C
S11304B00E94020289E790E00E94DB0160E081E093
S11304C00E94EE0186E890E00E94DB010E941A037C
S11304D00E94D4029FEF23ED30E39150204030403E
S11304E0E1F700C000000E94D8029FEF23ED30E343
S11304F0915020403040E1F700C00000813099F76E
S11305000E94020283E990E00E94DB0160E081E046
S11305100E94EE018BEA90E00E94DB018EE990E0FC
S11305200E9407030E941A030E94D4028FEF93EDE6
S113053020E3815090402040E1F700C000000E9479
S1130540D8023FEF83ED90E3315080409040E1F7D3
S1130550C8CF80E090E00895853331F087EB90E0D8
S11305600E94070380E0089581E008956F986E9AD1
S11305706D9A6C9A6B986A9841E064E081E00E94FD
S1130580490041E065E081E00E94490040E066E006
S113059081E00E94490041E067E081E00C94490059
S11305A069986898709A08958FB9779BFECF0895DB
S11305B0779BFECF8FB108951CB880B5806880BD4D
S11305C080B58F7B80BD80B58F7D80BD80B58F7EEB
S11305D080BD80B5877F80BD80B5846080BD80B5D7
S11305E0826080BD559A579A539A549A41E061E0CB
S11305F083E00E94490040E060E083E00C944900FD
S113060087E689B908955D9BFECF8CB908950F9351
S11306101F93CF938C01C0E0F801EC0FF11D808192
S1130620882321F00E940303CF5FF6CFCF911F915F
S11306300F9108955F9BFECF8CB108951F920F9286
S11306400FB60F9211248F939F938CE290E09093B6
S1130650C9008093C8009F918F910F900FBE0F9097
S11306601F9018951F920F920FB60F9211242F937B
S11306703F934F935F936F937F938F939F93AF9326
S1130680BF93CF93DF93EF93FF938CE290E090932B
S1130690C7008093C600C091CA00D091CB000E94CD
S11306A01A03FE010995FF91EF91DF91CF91BF915C
S11306B0AF919F918F917F916F915F914F913F91F6
S11306C02F910F900FBE0F901F901895F894FFCFA5
S11306D05448452050415353574F52440057656C7A
S11306E0636F6D6520536972004C4544315F5072ED
S11306F06573733A31004C4544325F5072657373CD
S11307003A32004C45445F4F70656E3A30004C45B8
S1130710445F4F70656E3A4F202C204C45445F4334
S11307206C6F73653A430057726F6E672070617324
S109073073776F72640090
S9030000FC
