:100000000C942A000C9434000C9434000C943400AA
:100010000C9434000C9434000C9434000C94340090
:100020000C9434000C9434000C9434000C94340080
:100030000C9434000C9434000C9434000C94340070
:100040000C9434000C9434000C9434000C94340060
:100050000C94340011241FBECFE5D8E0DEBFCDBF25
:100060000E9400010C9492010C940000442379F149
:10007000413009F05FC0813079F028F08230A9F07A
:100080008330E1F008952AB381E090E001C0880F49
:100090006A95EAF7822B2CC027B381E090E001C07B
:1000A000880F6A95EAF7822B2EC024B381E090E096
:1000B00001C0880F6A95EAF7822B30C021B381E036
:1000C00090E001C0880F6A95EAF7822B32C0813038
:1000D00089F028F08230C9F0833011F108952AB3F5
:1000E00081E090E001C0880F6A95EAF7809582234D
:1000F0008ABB089527B381E090E001C0880F6A951C
:10010000EAF78095822387BB089524B381E090E0CD
:1001100001C0880F6A95EAF78095822384BB089511
:1001200021B381E090E001C0880F6A95EAF78095DD
:10013000822381BB0895442379F1413009F05FC0E7
:10014000813079F028F08230A9F08330E1F0089511
:100150002BB381E090E001C0880F6A95EAF7822B0B
:100160002CC028B381E090E001C0880F6A95EAF7BF
:10017000822B2EC025B381E090E001C0880F6A95E4
:10018000EAF7822B30C022B381E090E001C0880FF3
:100190006A95EAF7822B32C0813089F028F08230EC
:1001A000C9F0833011F108952BB381E090E001C0D4
:1001B000880F6A95EAF7809582238BBB089528B350
:1001C00081E090E001C0880F6A95EAF7809582236C
:1001D00088BB089525B381E090E001C0880F6A953F
:1001E000EAF78095822385BB089522B381E090E0F1
:1001F00001C0880F6A95EAF78095822382BB089533
:1002000041E060E082E00E94360041E061E082E08F
:100210000E9436000E946C010E9486012FEF33ED90
:1002200080E3215030408040E1F700C000000E9490
:100230008E019FEF23ED30E3915020403040E1F7F5
:1002400000C00000813319F581E00E948A018FEF20
:1002500093ED20E3815090402040E1F700C0000082
:100260000E948E013FEF93ED20E3315090402040FB
:10027000E1F700C000008F3411F441E003C0833483
:1002800019F740E060E082E00E949B00DDCF8233FE
:1002900071F681E00E948A013FEF83ED90E33150D7
:1002A00080409040E1F700C000000E948E012FEFD7
:1002B00033ED90E3215030409040E1F700C0000062
:1002C0008F3411F441E003C0833419F740E061E05A
:1002D00082E00E949B00DDCF6F986E9A6D9A6C98B9
:1002E0006B986A9840E064E081E00E94360040E04C
:1002F00065E081E00E94360041E066E081E00E9416
:10030000360040E067E081E00C9436006998689818
:10031000709A0895779BFECF8FB90895779BFECF93
:080320008FB10895F894FFCF9E
:00000001FF
